{
  "contractName": "Juturna",
  "abi": [
    {
      "inputs": [
        {
          "internalType": "uint256",
          "name": "_initialSupply",
          "type": "uint256"
        }
      ],
      "stateMutability": "nonpayable",
      "type": "constructor"
    },
    {
      "inputs": [
        {
          "internalType": "address",
          "name": "",
          "type": "address"
        }
      ],
      "name": "balanceOf",
      "outputs": [
        {
          "internalType": "uint256",
          "name": "",
          "type": "uint256"
        }
      ],
      "stateMutability": "view",
      "type": "function",
      "constant": true
    },
    {
      "inputs": [],
      "name": "name",
      "outputs": [
        {
          "internalType": "string",
          "name": "",
          "type": "string"
        }
      ],
      "stateMutability": "view",
      "type": "function",
      "constant": true
    },
    {
      "inputs": [],
      "name": "standard",
      "outputs": [
        {
          "internalType": "string",
          "name": "",
          "type": "string"
        }
      ],
      "stateMutability": "view",
      "type": "function",
      "constant": true
    },
    {
      "inputs": [],
      "name": "symbol",
      "outputs": [
        {
          "internalType": "string",
          "name": "",
          "type": "string"
        }
      ],
      "stateMutability": "view",
      "type": "function",
      "constant": true
    },
    {
      "inputs": [],
      "name": "totalSupply",
      "outputs": [
        {
          "internalType": "uint256",
          "name": "",
          "type": "uint256"
        }
      ],
      "stateMutability": "view",
      "type": "function",
      "constant": true
    }
  ],
  "bytecode": "0x60806040526040518060400160405280600781526020017f4a757475726e61000000000000000000000000000000000000000000000000008152506000908051906020019061004f929190610169565b506040518060400160405280600381526020017f4a555400000000000000000000000000000000000000000000000000000000008152506001908051906020019061009b929190610169565b506040518060400160405280600c81526020017f4a757475726e612076312e300000000000000000000000000000000000000000815250600290805190602001906100e7929190610169565b503480156100f457600080fd5b506040516107c63803806107c683398181016040528101906101169190610247565b80600381905550600354600460003373ffffffffffffffffffffffffffffffffffffffff1673ffffffffffffffffffffffffffffffffffffffff16815260200190815260200160002081905550506102d5565b828054610175906102a3565b90600052602060002090601f01602090048101928261019757600085556101de565b82601f106101b057805160ff19168380011785556101de565b828001600101855582156101de579182015b828111156101dd5782518255916020019190600101906101c2565b5b5090506101eb91906101ef565b5090565b5b808211156102085760008160009055506001016101f0565b5090565b600080fd5b6000819050919050565b61022481610211565b811461022f57600080fd5b50565b6000815190506102418161021b565b92915050565b60006020828403121561025d5761025c61020c565b5b600061026b84828501610232565b91505092915050565b7f4e487b7100000000000000000000000000000000000000000000000000000000600052602260045260246000fd5b600060028204905060018216806102bb57607f821691505b602082108114156102cf576102ce610274565b5b50919050565b6104e2806102e46000396000f3fe608060405234801561001057600080fd5b50600436106100575760003560e01c806306fdde031461005c57806318160ddd1461007a5780635a3b7e421461009857806370a08231146100b657806395d89b41146100e6575b600080fd5b610064610104565b6040516100719190610365565b60405180910390f35b610082610192565b60405161008f91906103a0565b60405180910390f35b6100a0610198565b6040516100ad9190610365565b60405180910390f35b6100d060048036038101906100cb919061041e565b610226565b6040516100dd91906103a0565b60405180910390f35b6100ee61023e565b6040516100fb9190610365565b60405180910390f35b600080546101119061047a565b80601f016020809104026020016040519081016040528092919081815260200182805461013d9061047a565b801561018a5780601f1061015f5761010080835404028352916020019161018a565b820191906000526020600020905b81548152906001019060200180831161016d57829003601f168201915b505050505081565b60035481565b600280546101a59061047a565b80601f01602080910402602001604051908101604052809291908181526020018280546101d19061047a565b801561021e5780601f106101f35761010080835404028352916020019161021e565b820191906000526020600020905b81548152906001019060200180831161020157829003601f168201915b505050505081565b60046020528060005260406000206000915090505481565b6001805461024b9061047a565b80601f01602080910402602001604051908101604052809291908181526020018280546102779061047a565b80156102c45780601f10610299576101008083540402835291602001916102c4565b820191906000526020600020905b8154815290600101906020018083116102a757829003601f168201915b505050505081565b600081519050919050565b600082825260208201905092915050565b60005b838110156103065780820151818401526020810190506102eb565b83811115610315576000848401525b50505050565b6000601f19601f8301169050919050565b6000610337826102cc565b61034181856102d7565b93506103518185602086016102e8565b61035a8161031b565b840191505092915050565b6000602082019050818103600083015261037f818461032c565b905092915050565b6000819050919050565b61039a81610387565b82525050565b60006020820190506103b56000830184610391565b92915050565b600080fd5b600073ffffffffffffffffffffffffffffffffffffffff82169050919050565b60006103eb826103c0565b9050919050565b6103fb816103e0565b811461040657600080fd5b50565b600081359050610418816103f2565b92915050565b600060208284031215610434576104336103bb565b5b600061044284828501610409565b91505092915050565b7f4e487b7100000000000000000000000000000000000000000000000000000000600052602260045260246000fd5b6000600282049050600182168061049257607f821691505b602082108114156104a6576104a561044b565b5b5091905056fea26469706673582212208d3741b2b35178a11ad49193621c5de33544733212f484e67351493e8580e9a864736f6c634300080a0033",
  "immutableReferences": {},
  "source": "// SPDX-License-Identifier: MIT\npragma solidity ^0.8.1;\n\ncontract Juturna {\n    string public name = \"Juturna\";\n\n    string public symbol = \"JUT\";\n\n    string public standard = \"Juturna v1.0\";\n\n    uint256 public totalSupply;\n\n    mapping(address => uint256) public balanceOf;\n\n    constructor(uint256 _initialSupply) {\n        totalSupply = _initialSupply;\n\n        // allocate the initial supply\n        balanceOf[msg.sender] = totalSupply;\n    }\n}\n",
  "sourcePath": "/home/apreza/dev/web3-js-tutorial/contracts/Juturna.sol",
  "compiler": {
    "name": "solc",
    "version": "0.8.10+commit.fc410830.Emscripten.clang"
  },
  "schemaVersion": "3.4.4",
  "updatedAt": "2021-12-30T04:58:49.650Z",
  "networkType": "ethereum",
  "devdoc": {
    "kind": "dev",
    "methods": {},
    "version": 1
  },
  "userdoc": {
    "kind": "user",
    "methods": {},
    "version": 1
  }
}